:100000001DC024C023C022C021C020C01FC01EC0EC
:100010001DC06BC01BC01AC019C018C017C016C0C5
:1000200015C014C013C012C011C010C00FC00EC044
:100030000DC00CC00BC00AC009C008C011241FBEEF
:10004000CFEFD2E0DEBFCDBF02D057C0D9CFF894FA
:1000500018ED01E0109371000093730010E012BFDF
:1000600010E4126010BF14E013BF1FEF16BF12E0C0
:1000700019BF04E010E00ABB0BBB24E027BB789457
:10008000FFCFA0E0B1E040E21ED01DD01CD01BD0BD
:100090001AD019D018D01ED00000000000000000B7
:1000A00019D01ABB25E02A95F1F739B33D9323E027
:1000B0002A95F1F7000000004A95A1F728E02A955B
:1000C000F1F70ABB08951BBB27E02A95F1F700C0A2
:1000D0000BBB08951BBB22E02A95F1F700000BBB78
:1000E00023E02A9509F0FDCF0895FFB7F894C9DF02
:0E00F0002091000128BBFFBF1895F894FFCFA8
:00000001FF
