:100000001DC024C023C022C021C020C01FC01EC0EC
:100010001DC097C01BC01AC019C018C017C016C099
:1000200015C014C013C012C011C010C00FC00EC044
:100030000DC00CC00BC00AC009C09EC011241FBE59
:10004000CFEFD2E0DEBFCDBF02D0B3C0D9CFF8949E
:1000500018ED01E0109371000093730010E012BFDF
:1000600012E010BF14E013BF1FEF16BF12E019BF5C
:1000700014E51093A20018E0106110621093A5001F
:100080000CE018E00ABB0BBB24E027BB7894FFCF41
:10009000A0E0B1E048E13CD03BD03AD039D038D0F4
:1000A00037D036D035D03FD01ABB25E02A95F1F7AE
:1000B00039B33D9323E02A95F1F7000000004A95FB
:1000C000A1F728E02A95F1F70ABB0895A8E1B1E06D
:1000D00040E21ED01DD01CD01BD01AD019D018D091
:1000E00022D000000000000000001DD01ABB25E057
:1000F0002A95F1F739B33D9323E02A95F1F70000F3
:1001000000004A95A1F728E02A95F1F70ABB089567
:1001100029B32B7F2BBB26E02A95F1F7000029B3EA
:1001200024602BBB089529B32B7F2BBB000000005C
:10013000000029B324602BBB23E02A9509F0FDCFF2
:100140000895FFB7F894A4DF20910701247089F087
:1001500020910501247069F002C0FFBF18952FEFB0
:100160002A95F1F72CE02BBBB1DF2091180128BBB9
:10017000F4CF24E02BBBF1CFFFB7F8942091A3007C
:100180002078203839F02091A3002074203451F0D9
:10019000FFBF189529912093A00020E82093A30089
:1001A000FFBF1895C8E1D1E020E42093A300FFBF72
:0601B0001895F894FFCF42
:00000001FF
